{"abi":[{"type":"constructor","inputs":[{"name":"_owner","type":"address","internalType":"address"},{"name":"_keeper","type":"address","internalType":"address"}],"stateMutability":"nonpayable"},{"type":"function","name":"fulfillSentimentUpdate","inputs":[{"name":"requestId","type":"bytes32","internalType":"bytes32"},{"name":"score","type":"int256","internalType":"int256"},{"name":"volumeIndex","type":"uint256","internalType":"uint256"},{"name":"signal","type":"uint8","internalType":"uint8"},{"name":"dataHash","type":"bytes32","internalType":"bytes32"}],"outputs":[],"stateMutability":"nonpayable"},{"type":"function","name":"getLatestSentiment","inputs":[{"name":"assetId","type":"bytes32","internalType":"bytes32"}],"outputs":[{"name":"","type":"tuple","internalType":"struct SemaphoreOracle.SentimentRound","components":[{"name":"score","type":"int256","internalType":"int256"},{"name":"volumeIndex","type":"uint256","internalType":"uint256"},{"name":"signal","type":"uint8","internalType":"uint8"},{"name":"dataHash","type":"bytes32","internalType":"bytes32"},{"name":"updatedAt","type":"uint256","internalType":"uint256"}]}],"stateMutability":"view"},{"type":"function","name":"getRound","inputs":[{"name":"assetId","type":"bytes32","internalType":"bytes32"},{"name":"roundIndex","type":"uint256","internalType":"uint256"}],"outputs":[{"name":"","type":"tuple","internalType":"struct SemaphoreOracle.SentimentRound","components":[{"name":"score","type":"int256","internalType":"int256"},{"name":"volumeIndex","type":"uint256","internalType":"uint256"},{"name":"signal","type":"uint8","internalType":"uint8"},{"name":"dataHash","type":"bytes32","internalType":"bytes32"},{"name":"updatedAt","type":"uint256","internalType":"uint256"}]}],"stateMutability":"view"},{"type":"function","name":"getRoundCount","inputs":[{"name":"assetId","type":"bytes32","internalType":"bytes32"}],"outputs":[{"name":"","type":"uint256","internalType":"uint256"}],"stateMutability":"view"},{"type":"function","name":"keeper","inputs":[],"outputs":[{"name":"","type":"address","internalType":"address"}],"stateMutability":"view"},{"type":"function","name":"owner","inputs":[],"outputs":[{"name":"","type":"address","internalType":"address"}],"stateMutability":"view"},{"type":"function","name":"requestCount","inputs":[],"outputs":[{"name":"","type":"uint256","internalType":"uint256"}],"stateMutability":"view"},{"type":"function","name":"requestSentimentUpdate","inputs":[{"name":"assetId","type":"bytes32","internalType":"bytes32"},{"name":"sources","type":"string[]","internalType":"string[]"}],"outputs":[{"name":"requestId","type":"bytes32","internalType":"bytes32"}],"stateMutability":"nonpayable"},{"type":"function","name":"requests","inputs":[{"name":"","type":"bytes32","internalType":"bytes32"}],"outputs":[{"name":"assetId","type":"bytes32","internalType":"bytes32"},{"name":"requester","type":"address","internalType":"address"},{"name":"fulfilled","type":"bool","internalType":"bool"}],"stateMutability":"view"},{"type":"function","name":"setKeeper","inputs":[{"name":"newKeeper","type":"address","internalType":"address"}],"outputs":[],"stateMutability":"nonpayable"},{"type":"event","name":"KeeperUpdated","inputs":[{"name":"previousKeeper","type":"address","indexed":true,"internalType":"address"},{"name":"newKeeper","type":"address","indexed":true,"internalType":"address"}],"anonymous":false},{"type":"event","name":"SentimentUpdateFulfilled","inputs":[{"name":"requestId","type":"bytes32","indexed":true,"internalType":"bytes32"},{"name":"assetId","type":"bytes32","indexed":true,"internalType":"bytes32"},{"name":"score","type":"int256","indexed":false,"internalType":"int256"},{"name":"volumeIndex","type":"uint256","indexed":false,"internalType":"uint256"},{"name":"signal","type":"uint8","indexed":false,"internalType":"uint8"},{"name":"dataHash","type":"bytes32","indexed":false,"internalType":"bytes32"}],"anonymous":false},{"type":"event","name":"SentimentUpdateRequested","inputs":[{"name":"requestId","type":"bytes32","indexed":true,"internalType":"bytes32"},{"name":"assetId","type":"bytes32","indexed":true,"internalType":"bytes32"},{"name":"requester","type":"address","indexed":true,"internalType":"address"}],"anonymous":false}],"bytecode":{"object":"0x608060405234801562000010575f80fd5b5060405162001bc438038062001bc4833981810160405281019062000036919062000204565b5f73ffffffffffffffffffffffffffffffffffffffff168273ffffffffffffffffffffffffffffffffffffffff1603620000a7576040517f08c379a00000000000000000000000000000000000000000000000000000000081526004016200009e90620002a7565b60405180910390fd5b5f73ffffffffffffffffffffffffffffffffffffffff168173ffffffffffffffffffffffffffffffffffffffff160362000118576040517f08c379a00000000000000000000000000000000000000000000000000000000081526004016200010f9062000315565b60405180910390fd5b815f806101000a81548173ffffffffffffffffffffffffffffffffffffffff021916908373ffffffffffffffffffffffffffffffffffffffff1602179055508060015f6101000a81548173ffffffffffffffffffffffffffffffffffffffff021916908373ffffffffffffffffffffffffffffffffffffffff160217905550505062000335565b5f80fd5b5f73ffffffffffffffffffffffffffffffffffffffff82169050919050565b5f620001ce82620001a3565b9050919050565b620001e081620001c2565b8114620001eb575f80fd5b50565b5f81519050620001fe81620001d5565b92915050565b5f80604083850312156200021d576200021c6200019f565b5b5f6200022c85828601620001ee565b92505060206200023f85828601620001ee565b9150509250929050565b5f82825260208201905092915050565b7f53656d6170686f72654f7261636c653a206f776e6572207a65726f00000000005f82015250565b5f6200028f601b8362000249565b91506200029c8262000259565b602082019050919050565b5f6020820190508181035f830152620002c08162000281565b9050919050565b7f53656d6170686f72654f7261636c653a206b6565706572207a65726f000000005f82015250565b5f620002fd601c8362000249565b91506200030a82620002c7565b602082019050919050565b5f6020820190508181035f8301526200032e81620002ef565b9050919050565b61188180620003435f395ff3fe608060405234801561000f575f80fd5b506004361061009c575f3560e01c8063807685de11610064578063807685de1461016a5780638da5cb5b1461019a5780639c180016146101b85780639d866985146101d4578063aced1661146102065761009c565b8063012bc787146100a057806354de76a8146100d05780635badbe4c146101005780635db29cac1461011e578063748747e61461014e575b5f80fd5b6100ba60048036038101906100b59190610b8d565b610224565b6040516100c79190610bf9565b60405180910390f35b6100ea60048036038101906100e59190610c12565b6103b5565b6040516100f79190610cfd565b60405180910390f35b610108610423565b6040516101159190610d25565b60405180910390f35b61013860048036038101906101339190610d68565b610429565b6040516101459190610cfd565b60405180910390f35b61016860048036038101906101639190610e00565b61050c565b005b610184600480360381019061017f9190610c12565b6106ca565b6040516101919190610d25565b60405180910390f35b6101a26106e7565b6040516101af9190610e3a565b60405180910390f35b6101d260048036038101906101cd9190610ea7565b61070a565b005b6101ee60048036038101906101e99190610c12565b610a4b565b6040516101fd93929190610f38565b60405180910390f35b61020e610a9c565b60405161021b9190610e3a565b60405180910390f35b5f8060016002546102359190610f9a565b9050806002819055503081863342604051602001610257959493929190611052565b6040516020818303038152906040528051906020012091505f60035f8481526020019081526020015f20905085815f018190555033816001015f6101000a81548173ffffffffffffffffffffffffffffffffffffffff021916908373ffffffffffffffffffffffffffffffffffffffff1602179055505f816003015f6101000a81548160ff0219169083151502179055505f5b85859050811015610366578160020186868381811061030c5761030b6110b0565b5b905060200281019061031e91906110e9565b90918060018154018082558091505060019003905f5260205f20015f90919290919290919290919250918261035492919061137c565b508061035f90611449565b90506102ea565b503373ffffffffffffffffffffffffffffffffffffffff1686847f04c0f55b2f9b3fb6a382c5e58f7396de38c8eb9260feb1a303544d9a8cc60dc660405160405180910390a450509392505050565b6103bd610ac1565b60045f8381526020019081526020015f206040518060a00160405290815f820154815260200160018201548152602001600282015f9054906101000a900460ff1660ff1660ff168152602001600382015481526020016004820154815250509050919050565b60025481565b610431610ac1565b60055f8481526020019081526020015f20805490508210610487576040517f08c379a000000000000000000000000000000000000000000000000000000000815260040161047e90611510565b60405180910390fd5b60055f8481526020019081526020015f2082815481106104aa576104a96110b0565b5b905f5260205f2090600502016040518060a00160405290815f820154815260200160018201548152602001600282015f9054906101000a900460ff1660ff1660ff16815260200160038201548152602001600482015481525050905092915050565b5f8054906101000a900473ffffffffffffffffffffffffffffffffffffffff1673ffffffffffffffffffffffffffffffffffffffff163373ffffffffffffffffffffffffffffffffffffffff1614610599576040517f08c379a000000000000000000000000000000000000000000000000000000000815260040161059090611578565b60405180910390fd5b5f73ffffffffffffffffffffffffffffffffffffffff168173ffffffffffffffffffffffffffffffffffffffff1603610607576040517f08c379a00000000000000000000000000000000000000000000000000000000081526004016105fe906115e0565b60405180910390fd5b5f60015f9054906101000a900473ffffffffffffffffffffffffffffffffffffffff1690508160015f6101000a81548173ffffffffffffffffffffffffffffffffffffffff021916908373ffffffffffffffffffffffffffffffffffffffff1602179055508173ffffffffffffffffffffffffffffffffffffffff168173ffffffffffffffffffffffffffffffffffffffff167f53d3703fe259def57584466f32d1b94c30278008c683c21b04501c4966f13a6960405160405180910390a35050565b5f60055f8381526020019081526020015f20805490509050919050565b5f8054906101000a900473ffffffffffffffffffffffffffffffffffffffff1681565b60015f9054906101000a900473ffffffffffffffffffffffffffffffffffffffff1673ffffffffffffffffffffffffffffffffffffffff163373ffffffffffffffffffffffffffffffffffffffff1614610799576040517f08c379a000000000000000000000000000000000000000000000000000000000815260040161079090611648565b60405180910390fd5b60048260ff1611156107e0576040517f08c379a00000000000000000000000000000000000000000000000000000000081526004016107d7906116b0565b60405180910390fd5b5f60035f8781526020019081526020015f2090505f73ffffffffffffffffffffffffffffffffffffffff16816001015f9054906101000a900473ffffffffffffffffffffffffffffffffffffffff1673ffffffffffffffffffffffffffffffffffffffff1603610885576040517f08c379a000000000000000000000000000000000000000000000000000000000815260040161087c9061173e565b60405180910390fd5b806003015f9054906101000a900460ff16156108d6576040517f08c379a00000000000000000000000000000000000000000000000000000000081526004016108cd906117cc565b60405180910390fd5b5f6040518060a001604052808781526020018681526020018560ff1681526020018481526020014281525090508060045f845f015481526020019081526020015f205f820151815f0155602082015181600101556040820151816002015f6101000a81548160ff021916908360ff160217905550606082015181600301556080820151816004015590505060055f835f015481526020019081526020015f2081908060018154018082558091505060019003905f5260205f2090600502015f909190919091505f820151815f0155602082015181600101556040820151816002015f6101000a81548160ff021916908360ff160217905550606082015181600301556080820151816004015550506001826003015f6101000a81548160ff021916908315150217905550815f0154877f1d9027cf20ac3848edd6db855bd952241f7851b69fd240f06993cb5313d6502788888888604051610a3a9493929190611808565b60405180910390a350505050505050565b6003602052805f5260405f205f91509050805f015490806001015f9054906101000a900473ffffffffffffffffffffffffffffffffffffffff1690806003015f9054906101000a900460ff16905083565b60015f9054906101000a900473ffffffffffffffffffffffffffffffffffffffff1681565b6040518060a001604052805f81526020015f81526020015f60ff1681526020015f80191681526020015f81525090565b5f80fd5b5f80fd5b5f819050919050565b610b0b81610af9565b8114610b15575f80fd5b50565b5f81359050610b2681610b02565b92915050565b5f80fd5b5f80fd5b5f80fd5b5f8083601f840112610b4d57610b4c610b2c565b5b8235905067ffffffffffffffff811115610b6a57610b69610b30565b5b602083019150836020820283011115610b8657610b85610b34565b5b9250929050565b5f805f60408486031215610ba457610ba3610af1565b5b5f610bb186828701610b18565b935050602084013567ffffffffffffffff811115610bd257610bd1610af5565b5b610bde86828701610b38565b92509250509250925092565b610bf381610af9565b82525050565b5f602082019050610c0c5f830184610bea565b92915050565b5f60208284031215610c2757610c26610af1565b5b5f610c3484828501610b18565b91505092915050565b5f819050919050565b610c4f81610c3d565b82525050565b5f819050919050565b610c6781610c55565b82525050565b5f60ff82169050919050565b610c8281610c6d565b82525050565b610c9181610af9565b82525050565b60a082015f820151610cab5f850182610c46565b506020820151610cbe6020850182610c5e565b506040820151610cd16040850182610c79565b506060820151610ce46060850182610c88565b506080820151610cf76080850182610c5e565b50505050565b5f60a082019050610d105f830184610c97565b92915050565b610d1f81610c55565b82525050565b5f602082019050610d385f830184610d16565b92915050565b610d4781610c55565b8114610d51575f80fd5b50565b5f81359050610d6281610d3e565b92915050565b5f8060408385031215610d7e57610d7d610af1565b5b5f610d8b85828601610b18565b9250506020610d9c85828601610d54565b9150509250929050565b5f73ffffffffffffffffffffffffffffffffffffffff82169050919050565b5f610dcf82610da6565b9050919050565b610ddf81610dc5565b8114610de9575f80fd5b50565b5f81359050610dfa81610dd6565b92915050565b5f60208284031215610e1557610e14610af1565b5b5f610e2284828501610dec565b91505092915050565b610e3481610dc5565b82525050565b5f602082019050610e4d5f830184610e2b565b92915050565b610e5c81610c3d565b8114610e66575f80fd5b50565b5f81359050610e7781610e53565b92915050565b610e8681610c6d565b8114610e90575f80fd5b50565b5f81359050610ea181610e7d565b92915050565b5f805f805f60a08688031215610ec057610ebf610af1565b5b5f610ecd88828901610b18565b9550506020610ede88828901610e69565b9450506040610eef88828901610d54565b9350506060610f0088828901610e93565b9250506080610f1188828901610b18565b9150509295509295909350565b5f8115159050919050565b610f3281610f1e565b82525050565b5f606082019050610f4b5f830186610bea565b610f586020830185610e2b565b610f656040830184610f29565b949350505050565b7f4e487b71000000000000000000000000000000000000000000000000000000005f52601160045260245ffd5b5f610fa482610c55565b9150610faf83610c55565b9250828201905080821115610fc757610fc6610f6d565b5b92915050565b5f8160601b9050919050565b5f610fe382610fcd565b9050919050565b5f610ff482610fd9565b9050919050565b61100c61100782610dc5565b610fea565b82525050565b5f819050919050565b61102c61102782610c55565b611012565b82525050565b5f819050919050565b61104c61104782610af9565b611032565b82525050565b5f61105d8288610ffb565b60148201915061106d828761101b565b60208201915061107d828661103b565b60208201915061108d8285610ffb565b60148201915061109d828461101b565b6020820191508190509695505050505050565b7f4e487b71000000000000000000000000000000000000000000000000000000005f52603260045260245ffd5b5f80fd5b5f80fd5b5f80fd5b5f8083356001602003843603038112611105576111046110dd565b5b80840192508235915067ffffffffffffffff821115611127576111266110e1565b5b602083019250600182023603831315611143576111426110e5565b5b509250929050565b5f82905092915050565b7f4e487b71000000000000000000000000000000000000000000000000000000005f52604160045260245ffd5b7f4e487b71000000000000000000000000000000000000000000000000000000005f52602260045260245ffd5b5f60028204905060018216806111c657607f821691505b6020821081036111d9576111d8611182565b5b50919050565b5f819050815f5260205f209050919050565b5f6020601f8301049050919050565b5f82821b905092915050565b5f6008830261123b7fffffffffffffffffffffffffffffffffffffffffffffffffffffffffffffffff82611200565b6112458683611200565b95508019841693508086168417925050509392505050565b5f819050919050565b5f61128061127b61127684610c55565b61125d565b610c55565b9050919050565b5f819050919050565b61129983611266565b6112ad6112a582611287565b84845461120c565b825550505050565b5f90565b6112c16112b5565b6112cc818484611290565b505050565b5b818110156112ef576112e45f826112b9565b6001810190506112d2565b5050565b601f82111561133457611305816111df565b61130e846111f1565b8101602085101561131d578190505b611331611329856111f1565b8301826112d1565b50505b505050565b5f82821c905092915050565b5f6113545f1984600802611339565b1980831691505092915050565b5f61136c8383611345565b9150826002028217905092915050565b611386838361114b565b67ffffffffffffffff81111561139f5761139e611155565b5b6113a982546111af565b6113b48282856112f3565b5f601f8311600181146113e1575f84156113cf578287013590505b6113d98582611361565b865550611440565b601f1984166113ef866111df565b5f5b82811015611416578489013582556001820191506020850194506020810190506113f1565b86831015611433578489013561142f601f891682611345565b8355505b6001600288020188555050505b50505050505050565b5f61145382610c55565b91507fffffffffffffffffffffffffffffffffffffffffffffffffffffffffffffffff820361148557611484610f6d565b5b600182019050919050565b5f82825260208201905092915050565b7f53656d6170686f72654f7261636c653a20726f756e64206f7574206f6620626f5f8201527f756e647300000000000000000000000000000000000000000000000000000000602082015250565b5f6114fa602483611490565b9150611505826114a0565b604082019050919050565b5f6020820190508181035f830152611527816114ee565b9050919050565b7f53656d6170686f72654f7261636c653a206f6e6c79206f776e657200000000005f82015250565b5f611562601b83611490565b915061156d8261152e565b602082019050919050565b5f6020820190508181035f83015261158f81611556565b9050919050565b7f53656d6170686f72654f7261636c653a206b6565706572207a65726f000000005f82015250565b5f6115ca601c83611490565b91506115d582611596565b602082019050919050565b5f6020820190508181035f8301526115f7816115be565b9050919050565b7f53656d6170686f72654f7261636c653a206f6e6c79206b6565706572000000005f82015250565b5f611632601c83611490565b915061163d826115fe565b602082019050919050565b5f6020820190508181035f83015261165f81611626565b9050919050565b7f53656d6170686f72654f7261636c653a20696e76616c6964207369676e616c005f82015250565b5f61169a601f83611490565b91506116a582611666565b602082019050919050565b5f6020820190508181035f8301526116c78161168e565b9050919050565b7f53656d6170686f72654f7261636c653a2072657175657374206e6f7420666f755f8201527f6e64000000000000000000000000000000000000000000000000000000000000602082015250565b5f611728602283611490565b9150611733826116ce565b604082019050919050565b5f6020820190508181035f8301526117558161171c565b9050919050565b7f53656d6170686f72654f7261636c653a20616c72656164792066756c66696c6c5f8201527f6564000000000000000000000000000000000000000000000000000000000000602082015250565b5f6117b6602283611490565b91506117c18261175c565b604082019050919050565b5f6020820190508181035f8301526117e3816117aa565b9050919050565b6117f381610c3d565b82525050565b61180281610c6d565b82525050565b5f60808201905061181b5f8301876117ea565b6118286020830186610d16565b61183560408301856117f9565b6118426060830184610bea565b9594505050505056fea2646970667358221220475f46624ded3153c4f93b46bd367b4f5519afa1f6a875c5e50727025fbaf31264736f6c63430008140033","linkReferences":{}},"methodIdentifiers":{"fulfillSentimentUpdate(bytes32,int256,uint256,uint8,bytes32)":"9c180016","getLatestSentiment(bytes32)":"54de76a8","getRound(bytes32,uint256)":"5db29cac","getRoundCount(bytes32)":"807685de","keeper()":"aced1661","owner()":"8da5cb5b","requestCount()":"5badbe4c","requestSentimentUpdate(bytes32,string[])":"012bc787","requests(bytes32)":"9d866985","setKeeper(address)":"748747e6"},"id":19}